:020000040000FA
:06000000010A64003D0B43
:10027A00070C0200080C0600E3074D0B030C2600CE
:10028A006100270C810003064D0B6607450B460BE0
:10029A00030C26006607530B4F0B66076100270CF9
:1002AA0081000307520B6E006C0B010C5D0B020CF4
:1002BA002600600B6E00010C3F001F02EE01070CC6
:1002CA002D007D0C2C00EC02680BED02680B660712
:1002DA00830B0E023C007D001D02000F4306760BC5
:1002EA00600B1C02010F43065A0B320F43065C0BCC
:1002FA00570F43065F0B600B600B66076100270C04
:10030A0081000307820B6E009C0B030C2600900BE6
:10031A006600900B6E00010C3F001F02EE01070CF5
:10032A002D007D0C2C00EC02980BED02980B660751
:10033A00C50B0E023C007D001D02000F4306A60BF2
:10034A00900B1C02010F43068A0B150F43068D0BF7
:10035A003C0F43068A0B140F43068D0B6C0F4306A2
:10036A008A0B340F43068D0B1C0F43068A0BF40FBE
:10037A0043068D0B5E0F43068F0B900B900B66079F
:10038A006100270C81000307C40B6E00DE0B030C0F
:10039A002600D20B6600D20B6E00010C3F001F0232
:1003AA00EE01070C2D007D0C2C00EC02DA0BED029D
:1003BA00DA0B6607F40B0E023C007D001D02000FEB
:1003CA004306E80BD20B1C02010F4306CC0B150F98
:1003DA004306CF0B700F4306D10BD20BD20B66002C
:1003EA006100270C81000306FD0B6607F50BF60B6F
:0403FA000300410BB0
:021FFE00EBFFF7
:00000001FF
